{
  "contractName": "Calculator",
  "abi": [
    {
      "constant": true,
      "inputs": [],
      "name": "num2",
      "outputs": [
        {
          "name": "",
          "type": "uint256"
        }
      ],
      "payable": false,
      "stateMutability": "view",
      "type": "function"
    },
    {
      "constant": true,
      "inputs": [],
      "name": "num1",
      "outputs": [
        {
          "name": "",
          "type": "uint256"
        }
      ],
      "payable": false,
      "stateMutability": "view",
      "type": "function"
    },
    {
      "inputs": [],
      "payable": false,
      "stateMutability": "nonpayable",
      "type": "constructor"
    },
    {
      "constant": true,
      "inputs": [
        {
          "name": "_num1",
          "type": "uint256"
        },
        {
          "name": "_num2",
          "type": "uint256"
        }
      ],
      "name": "add",
      "outputs": [
        {
          "name": "",
          "type": "uint256"
        }
      ],
      "payable": false,
      "stateMutability": "view",
      "type": "function"
    },
    {
      "constant": true,
      "inputs": [
        {
          "name": "_num1",
          "type": "uint256"
        },
        {
          "name": "_num2",
          "type": "uint256"
        }
      ],
      "name": "subtract",
      "outputs": [
        {
          "name": "",
          "type": "uint256"
        }
      ],
      "payable": false,
      "stateMutability": "view",
      "type": "function"
    },
    {
      "constant": true,
      "inputs": [
        {
          "name": "_num1",
          "type": "uint256"
        },
        {
          "name": "_num2",
          "type": "uint256"
        }
      ],
      "name": "multiply",
      "outputs": [
        {
          "name": "",
          "type": "uint256"
        }
      ],
      "payable": false,
      "stateMutability": "view",
      "type": "function"
    },
    {
      "constant": true,
      "inputs": [
        {
          "name": "_num1",
          "type": "uint256"
        },
        {
          "name": "_num2",
          "type": "uint256"
        }
      ],
      "name": "divide",
      "outputs": [
        {
          "name": "",
          "type": "uint256"
        }
      ],
      "payable": false,
      "stateMutability": "view",
      "type": "function"
    }
  ],
  "bytecode": "0x608060405234801561001057600080fd5b506000808190555060006001819055506102ee8061002f6000396000f300608060405260043610610078576000357c0100000000000000000000000000000000000000000000000000000000900463ffffffff16806315d4266c1461007d578063165c4a16146100a85780633b9eac4b146100f35780633ef5e4451461011e578063771602f714610169578063f88e9fbf146101b4575b600080fd5b34801561008957600080fd5b506100926101ff565b6040518082815260200191505060405180910390f35b3480156100b457600080fd5b506100dd6004803603810190808035906020019092919080359060200190929190505050610205565b6040518082815260200191505060405180910390f35b3480156100ff57600080fd5b50610108610220565b6040518082815260200191505060405180910390f35b34801561012a57600080fd5b506101536004803603810190808035906020019092919080359060200190929190505050610226565b6040518082815260200191505060405180910390f35b34801561017557600080fd5b5061019e600480360381019080803590602001909291908035906020019092919050505061025c565b6040518082815260200191505060405180910390f35b3480156101c057600080fd5b506101e96004803603810190808035906020019092919080359060200190929190505050610277565b6040518082815260200191505060405180910390f35b60015481565b600061021183836102b0565b60015460005402905092915050565b60005481565b600061023283836102b0565b600154600054111561024c57600154600054039050610256565b6000546001540390505b92915050565b600061026883836102b0565b60015460005401905092915050565b600061028383836102b0565b6000600154141561029757600090506102aa565b6001546000548115156102a657fe5b0490505b92915050565b816000819055508060018190555050505600a165627a7a723058201a8f15b580c2f2da1035bec0f5052b8e4fc8ff5bc2bedc479fe481e16f3da9da0029",
  "source": "pragma solidity ^0.4.16;\r\n\r\n// Smart contract to manage order for an E-Commerce site\r\ncontract Calculator{\r\n   uint public num1;\r\n   uint public num2;\r\n   \r\n   constructor() public {\r\n        num1 = 0;\r\n        num2 = 0;\r\n    }\r\n    \r\n    function add(uint _num1, uint _num2) public constant returns(uint){\r\n        setNumbers(_num1, _num2);\r\n        return num1 + num2;\r\n    }\r\n    \r\n    function subtract(uint _num1, uint _num2) public constant returns(uint){\r\n        setNumbers(_num1, _num2);\r\n        if(num1 > num2 )\r\n            return num1 - num2;\r\n        else\r\n            return num2 - num1;\r\n    }\r\n    \r\n    function multiply(uint _num1, uint _num2) public constant returns(uint){\r\n        setNumbers(_num1, _num2);\r\n        return num1 * num2;\r\n    }\r\n    \r\n    function divide(uint _num1, uint _num2) public constant returns(uint){\r\n        setNumbers(_num1, _num2);\r\n        if(num2 == 0){\r\n            return 0;\r\n        }\r\n        return num1 / num2;\r\n    }\r\n\r\n    function setNumbers(uint _num1, uint _num2) private {\r\n        num1 = _num1;\r\n        num2 = _num2;\r\n    }\r\n}\r\n",
  "sourcePath": "E:\\Lalit\\NAGP\\Workshop 6\\Lalit Aggarwal_3333_Blockchain\\Web3jsSample\\Calculator\\contracts\\Calculator.sol",
  "compiler": {
    "name": "solc",
    "version": "0.4.24+commit.e67f0147.Emscripten.clang"
  },
  "schemaVersion": "2.0.1",
  "updatedAt": "2018-09-21T19:42:07.813Z"
}